{
  "contractName": "ZombieFactory",
  "abi": [
    {
      "anonymous": false,
      "inputs": [
        {
          "indexed": false,
          "internalType": "uint256",
          "name": "zombieId",
          "type": "uint256"
        },
        {
          "indexed": false,
          "internalType": "string",
          "name": "name",
          "type": "string"
        },
        {
          "indexed": false,
          "internalType": "uint256",
          "name": "dna",
          "type": "uint256"
        }
      ],
      "name": "NewZombie",
      "type": "event"
    },
    {
      "inputs": [
        {
          "internalType": "uint256",
          "name": "",
          "type": "uint256"
        }
      ],
      "name": "zombies",
      "outputs": [
        {
          "internalType": "string",
          "name": "name",
          "type": "string"
        },
        {
          "internalType": "uint256",
          "name": "dna",
          "type": "uint256"
        }
      ],
      "stateMutability": "view",
      "type": "function"
    },
    {
      "inputs": [
        {
          "internalType": "string",
          "name": "_name",
          "type": "string"
        }
      ],
      "name": "createRandomZombie",
      "outputs": [],
      "stateMutability": "nonpayable",
      "type": "function"
    }
  ],
  "bytecode": "0x60806040526010600055600054600a6200001a91906200008c565b6001553480156200002a57600080fd5b506200020f565b6000808291508390505b600185111562000083578086048111156200005b576200005a620001d3565b5b60018516156200006b5780820291505b80810290506200007b8562000202565b94506200003b565b94509492505050565b60006200009982620001c9565b9150620000a683620001c9565b9250620000d57fffffffffffffffffffffffffffffffffffffffffffffffffffffffffffffffff8484620000dd565b905092915050565b600082620000ef5760019050620001c2565b81620000ff5760009050620001c2565b8160018114620001185760028114620001235762000159565b6001915050620001c2565b60ff841115620001385762000137620001d3565b5b8360020a915084821115620001525762000151620001d3565b5b50620001c2565b5060208310610133831016604e8410600b8410161715620001935782820a9050838111156200018d576200018c620001d3565b5b620001c2565b620001a2848484600162000031565b92509050818404811115620001bc57620001bb620001d3565b5b81810290505b9392505050565b6000819050919050565b7f4e487b7100000000000000000000000000000000000000000000000000000000600052601160045260246000fd5b60008160011c9050919050565b610790806200021f6000396000f3fe608060405234801561001057600080fd5b50600436106100365760003560e01c80632052465e1461003b5780637bff0a011461006c575b600080fd5b610055600480360381019061005091906103be565b610088565b604051610063929190610477565b60405180910390f35b6100866004803603810190610081919061037d565b610144565b005b6002818154811061009857600080fd5b90600052602060002090600202016000915090508060000180546100bb906105e2565b80601f01602080910402602001604051908101604052809291908181526020018280546100e7906105e2565b80156101345780601f1061010957610100808354040283529160200191610134565b820191906000526020600020905b81548152906001019060200180831161011757829003601f168201915b5050505050908060010154905082565b600061014f8261015f565b905061015b82826101a4565b5050565b600080826040516020016101739190610460565b6040516020818303038152906040528051906020012060001c90506001548161019c9190610645565b915050919050565b60026040518060400160405280848152602001838152509080600181540180825580915050600190039060005260206000209060020201600090919091909150600082015181600001908051906020019061020092919061025d565b506020820151816001015550507f88f026aacbbecc90c18411df4b1185fd8d9be2470f1962f192bf84a27d0704b760016002805490506102409190610562565b8383604051610251939291906104a7565b60405180910390a15050565b828054610269906105e2565b90600052602060002090601f01602090048101928261028b57600085556102d2565b82601f106102a457805160ff19168380011785556102d2565b828001600101855582156102d2579182015b828111156102d15782518255916020019190600101906102b6565b5b5090506102df91906102e3565b5090565b5b808211156102fc5760008160009055506001016102e4565b5090565b600061031361030e8461050a565b6104e5565b90508281526020810184848401111561032b57600080fd5b6103368482856105a0565b509392505050565b600082601f83011261034f57600080fd5b813561035f848260208601610300565b91505092915050565b60008135905061037781610743565b92915050565b60006020828403121561038f57600080fd5b600082013567ffffffffffffffff8111156103a957600080fd5b6103b58482850161033e565b91505092915050565b6000602082840312156103d057600080fd5b60006103de84828501610368565b91505092915050565b60006103f28261053b565b6103fc8185610546565b935061040c8185602086016105af565b61041581610732565b840191505092915050565b600061042b8261053b565b6104358185610557565b93506104458185602086016105af565b80840191505092915050565b61045a81610596565b82525050565b600061046c8284610420565b915081905092915050565b6000604082019050818103600083015261049181856103e7565b90506104a06020830184610451565b9392505050565b60006060820190506104bc6000830186610451565b81810360208301526104ce81856103e7565b90506104dd6040830184610451565b949350505050565b60006104ef610500565b90506104fb8282610614565b919050565b6000604051905090565b600067ffffffffffffffff82111561052557610524610703565b5b61052e82610732565b9050602081019050919050565b600081519050919050565b600082825260208201905092915050565b600081905092915050565b600061056d82610596565b915061057883610596565b92508282101561058b5761058a610676565b5b828203905092915050565b6000819050919050565b82818337600083830152505050565b60005b838110156105cd5780820151818401526020810190506105b2565b838111156105dc576000848401525b50505050565b600060028204905060018216806105fa57607f821691505b6020821081141561060e5761060d6106d4565b5b50919050565b61061d82610732565b810181811067ffffffffffffffff8211171561063c5761063b610703565b5b80604052505050565b600061065082610596565b915061065b83610596565b92508261066b5761066a6106a5565b5b828206905092915050565b7f4e487b7100000000000000000000000000000000000000000000000000000000600052601160045260246000fd5b7f4e487b7100000000000000000000000000000000000000000000000000000000600052601260045260246000fd5b7f4e487b7100000000000000000000000000000000000000000000000000000000600052602260045260246000fd5b7f4e487b7100000000000000000000000000000000000000000000000000000000600052604160045260246000fd5b6000601f19601f8301169050919050565b61074c81610596565b811461075757600080fd5b5056fea2646970667358221220e6be09f08c0b48bf0817d6a7387ae62e6e9a17a8266ebba130ce979cd7e3d8ea64736f6c63430008040033",
  "immutableReferences": {},
  "source": "// SPDX-License-Identifier: MIT\npragma solidity >=0.8.0 <0.9.0;\n\n/**\n * @title ZombieFactory\n * @author Thanh-Quy Nguyen\n * @dev Contract dedicated to the creation of new zombies as an extension of CryptoKitties\n */\ncontract ZombieFactory {\n\tevent NewZombie(uint256 zombieId, string name, uint256 dna);\n\n\tuint256 dnaDigits = 16;\n\tuint256 dnaModulus = 10**dnaDigits;\n\n\tstruct Zombie {\n\t\tstring name;\n\t\tuint256 dna;\n\t}\n\n\tZombie[] public zombies;\n\n\t/**\n\t * @dev A function that creates new zombies with a given name and dna\n\t * @param _name The name of the zombie to be created\n\t * @param _dna The DNA of the zombie to be created\n\t */\n\tfunction _createZombie(string memory _name, uint256 _dna) private {\n\t\tzombies.push(Zombie(_name, _dna));\n\n\t\temit NewZombie(zombies.length - 1, _name, _dna);\n\t}\n\n\t/**\n\t * @dev A function that will generate a random dna from a name\n\t * @param _str A string from which the random dna will be generated\n\t * @return A random dna made of 16 digits\n\t */\n\tfunction _generateRandomDna(string memory _str)\n\t\tprivate\n\t\tview\n\t\treturns (uint256)\n\t{\n\t\t// keccak256(bytes(_str));\n\t\tuint256 rand = uint256(keccak256(abi.encodePacked(_str)));\n\t\treturn rand % dnaModulus;\n\t}\n\n\t/**\n\t * @dev A public function that will create a new zombie from a given name\n\t * @param _name The name of the zombie to be created\n\t */\n\tfunction createRandomZombie(string memory _name) public {\n\t\tuint256 randDna = _generateRandomDna(_name);\n\t\t_createZombie(_name, randDna);\n\t}\n}\n",
  "sourcePath": "/usr/src/app/contracts/ZombieFactory.sol",
  "compiler": {
    "name": "solc",
    "version": "0.8.4+commit.c7e474f2.Emscripten.clang"
  },
  "schemaVersion": "3.3.3",
  "updatedAt": "2021-05-03T12:48:45.805Z",
  "devdoc": {
    "author": "Thanh-Quy Nguyen",
    "details": "Contract dedicated to the creation of new zombies as an extension of CryptoKitties",
    "kind": "dev",
    "methods": {
      "createRandomZombie(string)": {
        "details": "A public function that will create a new zombie from a given name",
        "params": {
          "_name": "The name of the zombie to be created"
        }
      }
    },
    "title": "ZombieFactory",
    "version": 1
  },
  "userdoc": {
    "kind": "user",
    "methods": {},
    "version": 1
  }
}